:020000040800F2
:10000000B03700209D010008EB2A00084F1C0008B3
:10001000E92A000885070008232D000800000000D9
:10002000000000000000000000000000EF2A0008AF
:100030008707000800000000ED2A00083B2B00089D
:10004000B7010008B7010008B7010008B7010008B0
:10005000B7010008B7010008B7010008B7010008A0
:10006000B7010008B7010008B7010008B701000890
:10007000B7010008B7010008B7010008B701000880
:10008000B7010008B7010008B7010008B701000870
:10009000B7010008B7010008B7010008B701000860
:1000A000B7010008B7010008B7010008B701000850
:1000B000E52B0008B7010008B70100085D1C000827
:1000C000511C0008B7010008B7010008B70100087B
:1000D000B7010008B7010008B7010008B701000820
:1000E000B7010008B7010008B7010008B701000810
:1000F000B7010008B7010008B7010008B701000800
:10010000B7010008B7010008B7010008B7010008EF
:10011000B7010008B7010008B7010008B7010008DF
:10012000B7010008B7010008B7010008B7010008CF
:10013000B7010008B7010008B7010008B7010008BF
:10014000B7010008B7010008B7010008B7010008AF
:10015000B7010008B7010008B7010008B70100089F
:10016000B7010008B7010008B7010008B70100088F
:10017000B7010008B7010008B7010008000000003F
:10018000B7010008B7010008DFF80CD000F0E8FA6A
:1001900000480047652D0008B0370020064880471A
:1001A00006480047FEE7FEE7FEE7FEE7FEE7FEE75C
:1001B000FEE7FEE7FEE7FEE7C92B0008890100081D
:1001C0002DE9F05F0546002092469B46884606468C
:1001D000814640241BE0284641464746224600F01F
:1001E00009FA53465A46C01A914110D3114618468F
:1001F000224600F0F0F92D1A67EB01084F4622461F
:100200000120002100F0E7F917EB00094E41201E04
:10021000A4F10104DFDC484631462A464346BDE8E6
:10022000F09FD2B201E000F8012B491EFBD27047CB
:100230000022F6E710B513460A4604461946FFF7B2
:10024000F0FF204610BD2DE9FE4F804681EA0300F5
:10025000C00F0C46009021F0004123F00045B8EBA0
:100260000200A94105D24046214690461C460B4655
:10027000024623F00040104347D0270DC7F30A0081
:10028000C3F30A510290401A019040286BDAC3F37D
:10029000130040F4801B0098924620B10023D2EB5B
:1002A000030A63EB0B0B01985946C0F1400250461C
:1002B00000F091F906460D4650465946019A00F065
:1002C000A9F910EB08006141002487EA115284EA81
:1002D000E7731A4340D0009A62B3019A012A4FEAA9
:1002E000075215DC001B61EB02014FF0004202EAED
:1002F0000752CDE90042001C41F5801132462B46E1
:1003000000F0E0F903B0BDE8F08F40462146F9E780
:10031000001B61EB0201001C41F5801300185B41DA
:100320002018A2F5001747EB030140EAD570B61973
:100330006D4111E06D084FEA360645EAC0754FEA97
:100340000752001B61EB0201001C41F580114908B6
:100350004FEA30000019514132462B4603B0BDE848
:10036000F04F00F0A0B90098012240000023D0EB2C
:10037000020263EBE073009821464FEAE074B8EBA9
:10038000000061EB0401E9E783F000435BE781F0E3
:10039000004158E72DE9FE4F81EA030404F00044D0
:1003A00021F0004100944FF0000B23F0004350EA8D
:1003B00001045ED052EA03045BD0C3F30A54C1F3D4
:1003C0000A552C44A4F2F3340194A0FB0254C1F367
:1003D000130141F48011C3F3130343F4801301FBB1
:1003E000024400FB034E840A970A44EA815447EA18
:1003F0008357A4FB076802958D0A05FB07854FEA22
:10040000932C04FB0C542705029D4FEA065847EA3B
:100410001637B5EB08056EEB070C870E920E47EA10
:10042000811742EA8312A7FB0201B6EB0B0164EBD2
:1004300000042B0D43EA0C335E1844EB1C50DA46E3
:100440005146E7FB0201C5F313044FEA0B3343EABD
:1004500014534FEA0432019C43EA0603A4F10C044E
:100460000294009CCDE900B400F02CF903B0BDE883
:10047000F08F00200146F9E72DE9F04D81EA0304F1
:1004800004F0004B21F0004514464FF0000A23F021
:10049000004150EA050220D054EA01021DD0C5F304
:1004A0000A570246C5F31303C1F31300C1F30A56FA
:1004B00040F4801543F48013A7EB0608101BD646C2
:1004C00008F2FD3873EB050002D308F1010801E0E2
:1004D00092185B41B8F1000F03DA00200146BDE835
:1004E000F08D00204FF48011064684460EE0171B65
:1004F00073EB050705D3121B63EB050306434CEAB8
:10050000010C49084FEA300092185B4150EA01079C
:10051000EDD152EA030012D082EA040083EA050119
:10052000084305D0101BAB4106D20122002306E090
:1005300000224FF0004302E06FF0010253101AEB6B
:1005400006004CEB085110EB0A0041EB0B01BDE833
:10055000F04D00F0A8B80EB5C10F80EAE070084475
:10056000CA07002140F233438DE80E000A460B46CD
:1005700000F0A8F803B000BD00F0004230F00040E9
:100580000AD0C10D01F56071C0F3160042EA0151B5
:10059000C20840071143704700200146704701F030
:1005A000004330B421F0004150EA010206D00A0DA8
:1005B000A2F56072C1F31301002A02DC30BC0020F6
:1005C0007047440F44EAC104C100E01830BC00EB9E
:1005D000C25000F031B8202A04DB203A00FA02F1C0
:1005E000002070479140C2F1200320FA03F3194321
:1005F00090407047202A04DB203A21FA02F00021C3
:10060000704721FA02F3D040C2F120029140084322
:1006100019467047202A06DBCB17203A41FA02F030
:1006200043EAE07306E041FA02F3D040C2F120024F
:1006300091400843194670470029A8BF7047401CE5
:10064000490008BF20F00100704710B4B0FA80FCE8
:1006500000FA0CF050EA010404BF10BC704749B125
:10066000CCF1200421FA04F411FA0CF118BF012195
:1006700021430843A3EB0C01CB1D4FEA00614FEA75
:10068000102042BF002010BC704700EBC350104444
:100690000029A4BF10BC7047401C490008BF20F0CF
:1006A000010010BC704710B5141E73F1000408DA85
:1006B000401C41F1000192185B411A4301D120F026
:1006C000010010BD2DE9F04D92469B4611B1B1FAE3
:1006D00081F202E0B0FA80F220329046FFF77BFF11
:1006E00004460F4640EA0A0041EA0B0153465A46C7
:1006F000084313D0114653EA010019D0C8F1400253
:100700005046FFF777FF05460E465046594642468B
:10071000FFF761FF084305D0012004E02046394679
:10072000BDE8F08D0020054346EAE0762C433743D0
:100730000A986305E40AA0EB08000022FD0A44EAD7
:1007400047540A3002D500200146E9E70105101997
:100750006941DDE9084500196941BDE8F04DA2E7AE
:10076000064C074D06E0E06840F0010394E80700FE
:1007700098471034AC42F6D3FFF70AFD4C2E000820
:100780006C2E0008FEE77047704790F8351002297C
:1007900003D08021416501207047052180F8351084
:1007A0000068016821F0010101600020704790F8A5
:1007B000350070472DE9F84F00224FF0010803255E
:1007C0004FF00F0E0B6808FA02F42340A3426ED1DB
:1007D0004E68012E05D0022E03D0112E01D0122E0C
:1007E00012D186684FEA420C05FA0CF7BE43CF6877
:1007F00007FA0CF7374387604668A6430C79C4F3C1
:100800000014944034434460C668570005FA07FC5E
:100810008C6826EA0C06BC403443C4604C68022C49
:1008200001D0122C13D1D40800EB8404A346D4F8D1
:10083000209054074FEAD46A0EFA0AF629EA06090C
:100840000E6906FA0AF646EA0906CBF82060066841
:100850000C7926EA0C0604F00304BC40344304601F
:100860004C68E40065D5364C266846F48046266020
:10087000246822F0030604F480440094314C34448C
:10088000A446D4F808489607370F0EFA07F6B44383
:100890002D4EB04201D1002624E02C4EB04201D1B1
:1008A00001261FE02A4EB04202D102261AE040E0A3
:1008B000284EB04201D1032614E0274EB04201D1A8
:1008C00004260FE0254EB04201D105260AE0244E51
:1008D000B04201D1062605E0224EB04201D10726E2
:1008E00000E00826BE402643CCF808681E4E346857
:1008F0004F689C43FF0300D51C4334601A4C241DF1
:1009000026684F689E43BF0300D51E432660164EDF
:10091000083634684F689C43FF0200D51C4334609E
:10092000114E0C3634684F689C43BF0200D51C43FF
:100930003460521C102AFFF445AFBDE8F88F000068
:1009400044380240003001400000024000040240F0
:1009500000080240000C0240001002400014024057
:1009600000180240001C0240003C0140426931EA8C
:10097000020200D10904816170470AB181617047A8
:100980000904FBE701488068704700003000002040
:10099000704770472DE9F041016804464A694E6886
:1009A00090F83E000025D743FA0506D4F243D2055D
:1009B00003D46FF4807201254A61B90508D4F1436C
:1009C000C90505D422686FF4007145F00205516134
:1009D000790525D4F143C90522D4638D94F83D10DF
:1009E000226B202808D13BB9212910D029290ED00B
:1009F000282901D1212A0AD022686FF4806151612F
:100A000045F00405102806D0402804D008E0204610
:100A100001F062FD04E02068016841F400710160AA
:100A2000380508D4F043C00505D421686FF4006090
:100A300045F008054861002D07D0206C284320644C
:100A40002046BDE8F04101F053B9BDE8F0812DE941
:100A5000F041026800245168C56A90F83E3090F871
:100A60003D60102B1CD0402B1AD0036C002B7ED085
:100A700053694FF02805DB439F0779D4CF43BF0567
:100A800076D4016C01B1946990F83D3000219D430A
:100A90000B467FD0C91E516180F83C30BDE8F08123
:100AA000946953694FF42A07DB435FEAC37C4FF034
:100AB0002A4604D0BD42F1D0B542EFD010E0CD437C
:100AC000AD050DD4C16AB94201D1012103E0C16A6B
:100AD000B14201D10821C162BDE8F04101F0AEBBD5
:100AE0001D0716D4CD43AD0513D4416CC9B21161B5
:100AF000416B11B9826B002AD0D0C96B19B9816BD7
:100B0000C96B0029CAD00068416841F400614160A6
:100B1000C4E79D0706D4CD43AD0503D4BDE8F0413D
:100B200001F000BBE443526864074FEA025215D457
:100B3000002AB3DB1A0608D4CA43520505D45A0763
:100B400005D5BDE8F04101F091BA5A07A6D4C943D2
:100B50008905A3D4BDE8F04101F03EBA002A9DDB2F
:100B60005A060CD4CA43520509D45A0702E00FE0D2
:100B700023E00FE005D5BDE8F04101F0E3B95A07E5
:100B80008CD4C943890589D4BDE8F04101F071B91D
:100B900094696DE7556825F480655560E243540714
:100BA00000D50121120601D5828900E0028B80F870
:100BB0003C3092B2FFF7EDFE70E7DC0606D4CC4382
:100BC000A40503D4BDE8F04101F0C8BC212E27D014
:100BD000292E25D05C0655D4CC43640552D45B073E
:100BE00052D590F83D10438D002B91D01269436A85
:100BF0001A70426A521C4262428D521E4285428DD8
:100C0000002A85D12A29D7D101684A6822F4806256
:100C10004A602221016380F83D5000F0E9FA3DE787
:100C20001C0623D4CC43640520D45B0720D590F860
:100C30003D10438D002BBFD0436A1B781361426A7D
:100C4000521C4262428D521E4285428D002AB3D10F
:100C50002929B1D101684A6822F480624A602121C1
:100C6000016380F83D5000F0C4FA17E75B07A3D496
:100C7000C9438905A0D4418D00299DD0416A0978D6
:100C800011610AE05B0797D4C943890594D4418D6B
:100C9000002991D01169426A1170416A491C416270
:100CA000418D491E4185F9E67047000070B504008A
:100CB00025D094F83D00002520B984F83C5020460A
:100CC00000F052FA242084F83D002068016821F0E9
:100CD000010101602068016841F400410160206861
:100CE000016821F40041016000F0B8FB4D4A6168E1
:100CF000914201D84C4900E04C49884201D2012080
:100D000070BD4B492368B0FBF1F15E6826F03F06E9
:100D10000E435E606368934206D94FF4967359435D
:100D20004FF47A73B1FBF3F12368491C1E6A26F075
:100D30003F06314319626168914210D84900401E54
:100D4000B0FBF1F2521CC2F30B02042A01D20420C0
:100D500022E0B0FBF1F0401CC0F30B001CE0A268E5
:100D6000F2B301EBC10303EB0116431EB3FBF6F331
:100D70005B1C43F480431B0549D092B301EBC102D5
:100D800002EB0111401EB0FBF1F0401CC0F30B0060
:100D900040F4804040F400402168CA694CF6FF737B
:100DA0009A431043C861D4E90710014320680268E0
:100DB00022F0C00211430160D4E90301014320681D
:100DC000826848F2FF339A4311438160D4E90501F8
:100DD00008432168CA6822F0FF021043C86001E09E
:100DE0000EE016E02068016841F001010160256411
:100DF000202084F83D00256384F83E50002070BD1B
:100E000001EB4106431EB3FBF6F35B1CB3E7012085
:100E1000C2E701EB4101401EB0FBF1F0401CC0F302
:100E20000B00B7E7A086010080841E0000093D008A
:100E300040420F007047704770477047704700008E
:100E40002DE9FF4F83B09A46DDE91197934604469A
:100E5000DDF84080FFF796FD054694F83D00202818
:100E600070D11923012271492046009501F04AFCF6
:100E70000028F5D194F83C00012863D0012084F8C3
:100E80003C0020680168C90703D1016841F00101F5
:100E900001602068016821F400610160222084F86B
:100EA0003D00402084F83E0000262664C4F82480DB
:100EB000A4F82A90608D20855D48E062CDE9007538
:100EC00053465A462046049901F034FA00287CD152
:100ED000208DD0B1012821D00228206824D041697A
:100EE00080690090208D032869D801282BD05149B2
:100EF00002283B464FF00002009559D08846204614
:100F000001F000FC002860D13CE020684169816963
:100F10000091016841F40071016077E02068016888
:100F200021F480610160F0E7016821F480610160D3
:100F30002068016841F400610160206841698069AE
:100F4000009063E06FE02A463946204601F059FCE4
:100F500098BB20680069616A08704EE020680168EB
:100F600041F40071016020680069616A0870606A7C
:100F7000401C6062218D491E2185618D491E61855D
:100F8000216838E02068016821F4806101602068F0
:100F90000069616A0870606A401C6062208D401EB2
:100FA0002085608D401E60853B46002241460095AD
:100FB000204601F0A7FB00B9D0E706E0FFE72A468C
:100FC0003946204601F01DFC18B1012007B0BDE8EC
:100FD000F08F20680069616A0870606A401C606276
:100FE000218D491E2185618D491E618521684A69CF
:100FF000D24352070AD409690170606A401C6062DA
:10100000208D401E2085608D401E6085208D00282B
:101010007FF468AF202084F83D0084F83E6084F8B7
:101020003C600020D2E70220D0E700000200100060
:101030000000FFFF040001002DE9FF4F83B09A4636
:10104000DDE9119793460446DDF84080FFF79AFCEE
:10105000054694F83D0020287FD1192301224049FC
:101060002046009501F04EFB002876D194F83C0014
:10107000012872D0012084F83C0020680168C9076B
:1010800003D1016841F0010101602068016821F489
:1010900000610160212084F83D00402084F83E007A
:1010A00000262664C4F82480A4F82A90608D208548
:1010B0002C48E062CDE9007553465A462046049913
:1010C00001F0B6F970B930E02A463946204601F001
:1010D000CBFB58B1206C042804D12068016841F48E
:1010E00000710160012007B0BDE8F08F606A2168DF
:1010F00000780861606A401C6062218D491E89B2D7
:101100002185628D521E628522685369DB435B072D
:101110000BD469B100781061606A401C6062208D58
:10112000401E2085608D401E6085208D0028CBD11B
:101130002A463946204601F0BFFA0028CAD154F8A1
:101140003D0B016841F400710160202004F81E0984
:10115000E67766770020C6E7FFE70220C3E70000D6
:10116000020010000000FFFF10B586B004461421F5
:101170006846FFF75DF81B492068884230D11A485D
:10118000016841F0020101600068694600F0020058
:101190000590C020009012200190012002900320B1
:1011A0000390042004901148FFF704FB0E48103010
:1011B000016841F4001101600068002200F4001091
:1011C000059011461F2000F07DF81F2000F06CF8FC
:1011D00000221146202000F075F8202000F064F86D
:1011E00006B010BD005400403038024000040240F8
:1011F00070477047024881680278114481607047E7
:10120000300000200B4810B5016841F40071016006
:10121000016841F480610160016841F480710160FE
:10122000032000F06FF8002000F006F800F024F82A
:10123000002010BD003C024070B50D4D04464FF437
:101240007A712878B1FBF0F00A490968B1FBF0F037
:1012500000F0F2FA48B9102C07D200222146501EA5
:1012600000F030F800206C6070BD012070BD0000FF
:10127000300000203C0000200A4808B5016841F415
:1012800080410160006800F4804000900548001F24
:10129000016841F080510160006800F080500090CA
:1012A00008BD000044380240002809DB00F01F029E
:1012B000012191404009800000F1E020C0F80011B8
:1012C00070470000F0B40E4B1B680C46C3F30223BA
:1012D000C3F10705042D00D90425191D072901D2E2
:1012E000002300E0DB1E012606FA05F1491E21401D
:1012F00099409E40761E16403143F0BC01F012BD6D
:101300000CED00E0064900F0070208684FF6FF0305
:10131000184040EA0220034A10430860704700006A
:101320000CED00E00000FA052DE9F0470E4605003F
:1013300065D0DFF81481D8F80000F7B200F00F0094
:10134000B04207D288F80070D8F8000000F00F0013
:10135000B04254D128683D4C810712D5400703D5CF
:10136000206840F4E05020602878000703D520680A
:1013700040F4604020602068A96820F0F000084335
:1013800020602878C0072DD03049686808390128C6
:1013900012D0022813D0032811D009688907002928
:1013A0002DDA216821F0030101432160FFF7EAFAF9
:1013B000814641F2883A0EE009688903EFE709683F
:1013C0008901ECE7FFF7DEFAA0EB0901514502D9EC
:1013D0000320BDE8F0872068696800F00C00B0EBDE
:1013E000810FEFD1D8F80010404601F00F01B14253
:1013F00007D90770006800F00F00B04201D001204B
:10140000E7E72878400705D52068E96820F4E05030
:10141000084320602878000706D52068296920F451
:10142000604040EAC100206000F028F82168084AC6
:10143000C1F30311515CC8400649086006480068C2
:10144000FFF7FAFE0020C4E7003C024008380240E3
:10145000342E00083C0000203400002004480549D8
:1014600000680968044AC1F38221515CC840704792
:101470003C00002008380240442E0008154810B5F2
:10148000006810F00C02144813D04110042A0FD049
:10149000082A0ED10F4C241F2268236802F03F0255
:1014A0005B0207D52068C0F38810A0FB010106E0AD
:1014B000084610BD2168C1F38811A1FB000100237B
:1014C000FEF77EFE2168C1F30141491C4900B0FBD3
:1014D000F1F010BD083802400024F4002DE9F84F67
:1014E000040076D02078DFF838A3CE4DC00749D06D
:1014F000DAF800105046C1F38101012908D00068D4
:10150000C0F3810002280AD1281D0068400206D5D8
:101510002868800336D560680028E2D032E0606831
:10152000B0F5803F10D0B0F5A02F286810D020F47F
:1015300080302860286820F4802028606068A0B18E
:10154000FFF720FA06460CE0286840F48030F4E704
:1015500040F480202860F7E7FFF714FA801B642826
:1015600073D828688003F7D50CE0FFF70BFA06461E
:1015700005E000BFFFF706FA801B6428F0D8286852
:101580008003F7D42078DFF8A08280074FF00009AD
:101590003ED5DAF80010504611F00C0F09D0006863
:1015A000C0F3810002280BD19D48001F0068400253
:1015B00006D42868800715D5E068012809D111E014
:1015C000E068B8B10120C8F80000FFF7DBF9064673
:1015D00005E020E1FFF7D6F9801B0228C0D8286873
:1015E0008007F7D52868216920F0F80040EAC1009B
:1015F00028600DE0C8F80090FFF7C4F9064604E043
:10160000FFF7C0F9801B02281FD828688007F7D48D
:101610002078000722D5824E844861696C3671B10A
:1016200001210160FFF7AEF9074604E0FFF7AAF9D0
:10163000C01B022809D830688007F7D50EE0C0F833
:101640000090FFF79FF9074605E082E0FFF79AF95F
:10165000C01B02287DD830688007F7D42078400767
:1016600068D5DFF8BCB100270BF1380BDBF80000C0
:10167000C0000BD4DBF8001041F08051CBF8001013
:10168000DBF80000012700F080500090684E3068C1
:10169000C00510D4306840F480703060FFF772F9F4
:1016A000009005E0FFF76EF90099401A022850D823
:1016B0003068C005F6D55A4EA068683601280FD0AC
:1016C0000528306810D020F001003060306820F02C
:1016D00004003060A068B8B1FFF754F900900FE043
:1016E000306840F00100F4E740F004003060F7E7B4
:1016F000FFF748F90099411A41F28830814266D8D3
:1017000030688007F4D50EE0FFF73CF9009007E061
:10171000FFF738F90099411A41F28830814256D8D2
:1017200030688007F4D42FB1DBF8001021F080512D
:10173000CBF80010A069D0B3DAF800205146C2F30C
:101740008102022A4AD00228484607D0C8F8600021
:1017500000E03CE0FFF716F904463BE04746C8F8D6
:101760006000FFF70FF9064605E000BFFFF70AF932
:10177000801B02282BD828688001F7D4D4E9070100
:101780000843A16A2B4A490802EB0141626A41EA17
:101790008211084394F82C1040EA01612048001F90
:1017A000016001203866FFF7EDF8044605E034E0FB
:1017B000FFF7E8F8001B022809D828688001F7D550
:1017C0002BE000BFFFF7DEF8001B022802D9032040
:1017D000BDE8F88F28688001F4D41EE00128F7D016
:1017E0000868E26900F48001914214D1226A00F095
:1017F0003F0191420FD147F6C071626A01409142A8
:1018000009D1A26A00F44031914204D1E16A00F0AA
:101810007060884201D00120DAE70020D8E700009C
:10182000083802400038024000004742800E47421C
:10183000007000400000FFFF10B5401EB0F1807F37
:1018400001D3012010BD4FF0E02460610F2160172B
:1018500001F068FA0020A06107202061002010BD7F
:101860007047704770B590F83C20012A32D00124AF
:1018700080F83C40022280F83D2003685A689D6849
:1018800022F070060A6832435A60134B02689A428B
:1018900014D0B2F1804F11D0104B9A420ED0104BA1
:1018A0009A420BD00F4B9A4208D00F4B9A4205D068
:1018B0000E4B9A4202D00E4B9A4204D1496825F051
:1018C00080031943916080F83D40002180F83C106E
:1018D000084670BD022070BD0000014000040040B9
:1018E00000080040000C004000040140004001409E
:1018F0000018004010B5040003D094F83D0010B16A
:1019000007E0012010BD002084F83C00204600F0D4
:101910000DF8022084F83D00211D206801F068F9CF
:10192000012084F83D00002010BD000008B50068CB
:10193000B0F1804F12D10A48016841F00101016005
:101940000068002200F00100009011461C20FFF703
:10195000B9FCBDE808401C20FFF7A6BC08BD00008C
:10196000403802400168CA6842F00102CA6000685B
:10197000816801F00701062903D0016841F00101E7
:1019800001600020704770B5044690F83C000128C3
:1019900017D0012584F83C50022084F83D002068CF
:1019A000826822F0770222F47F4282600868502821
:1019B00030D00DDC20284DD005DC98B310283BD169
:1019C00048E0022070BD302844D0402834D139E0AE
:1019D000602828D0702806D0B0F5805F2CD0B0F5F4
:1019E000005F29D10AE0CB68D1E90121206801F02C
:1019F00063F92068816841F0770109E0CB68D1E99B
:101A00000121206801F058F92068816841F4804183
:101A1000816011E0CA684968206801F05FF95021CF
:101A2000206807E016E0CA684968206801F067F995
:101A30006021206801F04AF984F83D50002084F8C4
:101A40003C0070BDCA684968206801F047F9402130
:101A50002068EFE7226801461046EBE7704770B553
:101A60000446006801694FF00005C943890715D491
:101A7000C168C943890711D4E91E0161012020779B
:101A8000206880698007204602D0FFF7E7FF04E066
:101A900000F098F8204600F096F825772068016954
:101AA000C943490717D4C168C943490713D46FF024
:101AB00004010161022020772068806910F4407FD2
:101AC000204602D0FFF7CAFF04E000F07BF8204672
:101AD00000F079F8257720680169C943090716D411
:101AE000C168C943090712D46FF0080101610420DD
:101AF00020772068C0698007204602D0FFF7AEFF3C
:101B000004E000F05FF8204600F05DF825772068DB
:101B10000169C943C90617D4C168C943C90613D4AA
:101B20006FF010010161082020772068C06910F46F
:101B3000407F204602D0FFF791FF04E000F042F81A
:101B4000204600F040F8257720680169C943C9079D
:101B500008D1C168C943C90704D1891E0161204663
:101B600000F032F820680169C943090609D4C16848
:101B7000C943090605D46FF0800101612046FFF7D3
:101B80006FFE20680169C943490609D4C168C94389
:101B9000490605D46FF040010161204600F056F877
:101BA00020680169C94389060BD4C168C943890605
:101BB00007D46FF0200101612046BDE87040FFF7B7
:101BC00050BE70BD7047704710B51949194800F0F4
:101BD000B9FE174890ED0E0B51EC100BFEF7DFFC31
:101BE00000EE100A144800F083FF10EE100AFEF712
:101BF000C3FC124C41EC100B84ED040B94ED081B5C
:101C000053EC112BFEF7C0FB9FED0D1B53EC112B7A
:101C1000FEF7C0FB94ED061B53EC112BFEF713FBF4
:101C2000C4E90601BDE8104080210748FEF79EBECA
:101C30005800002018330020400000200000002041
:101C4000FCA9F1D24D62303F000002407047FEE730
:101C50000148FEF79FBE0000183300200148FEF740
:101C6000F6BE00001833002010B5806B90F83D20C0
:101C7000436B002103B1D963836B03B1D96303685C
:101C80001C6824F480641C604185436B03B11965B2
:101C9000836B03B1196503681C6824F001041C60A0
:101CA00090F83D402023602C0BD0282434EA020217
:101CB0000FD080F83D3080F83E1000BFFEF7F4FFF3
:101CC00010BD80F83D3080F83E100164FEF760FEE4
:101CD00010BD0268136843F00103136002681368C3
:101CE00043F480631360016380F83D40E6E7000041
:101CF00070B5044690F83D0094F83E10102906D1C6
:101D0000222804D121680A6822F400620A6028218E
:101D100031EA00024FF000054FF0200626D021687E
:101D20004968090503D4602801D084F83D60256323
:101D300084F83E5020684168090537D5416821F490
:101D400000614160606B90F835203C49012A11D058
:101D50000165606BFEF719FD38B32068016821F05A
:101D60000101016084F83D60606B1CE0256384F82C
:101D70003D10DFE7A06B0165A06BFEF706FDA0B18B
:101D800020684169C943490605D40069616A087041
:101D9000606A401C60622068016821F001010160F6
:101DA00084F83D60A06B016D884710E094F83D1009
:101DB000602910D04169C943490605D40069616AA8
:101DC0000870606A401C60622046FEF76DFF206C60
:101DD000C1071CD115E084F83D6025644169C94301
:101DE000490605D40069616A0870606A401C606237
:101DF0002068016821F0010101602046FEF7C8FD5E
:101E0000E5E7810703D4410701D4000704D5206822
:101E1000416821F4E061416094F83D00216C49077C
:101E20000BD5282809D10648E062256384F83D6077
:101E300084F83E502046FEF7FDFF70BD691C000887
:101E40000000FFFF01684A69D24352050FD46FF4C6
:101E500080624A61002140F8301F20224273817362
:101E6000026942F004020261017301207047002000
:101E7000704710B5C26A438D0168042B06D0438DAC
:101E8000032B08D0438D022B1DD012E04A6822F4A8
:101E900080624A600CE04B6823F480634B60042A44
:101EA00006D0022A04D001680A6822F480620A601F
:101EB00001680969426A1170416A491C4162418D99
:101EC000491E418510BD012A30D0102A2ED0042A87
:101ED00030D0022A2ED00A6842F400720A600168EB
:101EE0000969426A1170416A491C4162428D521E61
:101EF0004285026812690A70416A491C4162418D3B
:101F0000491E418501684A6822F440724A602021D6
:101F100080F83D1090F83E200021402A80F83E10C5
:101F20000CD012210163FEF786FF10BD0A6822F46F
:101F30008062D3E70A6842F48062CFE70163FEF76C
:101F40007CFF10BD10B590F83D10222914D1418DB1
:101F5000032912D901680969426A1170416A491C52
:101F60004162418D491E4185418D032904D100689C
:101F7000416821F48061416010BDC26A022AFBD031
:101F8000012901D00029F7D101680A6822F4806292
:101F90000A6001684A6822F4E0624A6001680969DF
:101FA000426A1170416A491C4162418D491E418556
:101FB000202180F83D1090F83E200021402A80F832
:101FC0003E1004D012210163FEF735FF10BD0163FE
:101FD000FEF733FF10BD000010B5C26A90F83D1047
:101FE000212907D090F83E1040290FD1BDE81040BC
:101FF00000F06AB9418D51B1416A026809781161F6
:10200000416A491C4162418D491E418510BD202312
:102010000021082A13D0202A11D012F5803F0ED0BB
:102020000268546824F4E06454601122026380F86A
:102030003E1080F83D3000BFFEF7FEFE10BD026886
:10204000546824F4E06454600268146844F4007432
:102050001460016380F83D3090F83E2080F83E1017
:10206000402AE9D1FEF7EAFE10BD000010B590F855
:102070003D1090F83E30C26A048DB4B1212903D0DE
:10208000402B11D122290FD1418DE1B390F83E10A0
:10209000402942D0416A026809781161416A491CAD
:1020A0004162418D491E418510BD2129E8D120237F
:1020B0000021082A13D0202A11D012F5803F0ED01B
:1020C0000268546824F4E06454601122026380F8CA
:1020D0003E1080F83D3000BFFEF7AEFE10BD026836
:1020E000546824F4E06454600268146844F4007492
:1020F0001460016380F83D3090F83E2080F83E1077
:10210000402AE9D100E002E0FEF798FE10BD006829
:10211000416821F48061416010BDBDE8104000F0CD
:10212000D3B8000078B590F83E50C26A036B90F8BF
:102130003D6000240168222E7AD1066D0EB9402D33
:1021400076D0056D1DB90569B5F5404F09D0458DAF
:1021500005B3468D384D012E0ED0438D022B3AD05B
:102160005DE04A698A6900920A6842F480720A60F6
:10217000016D491C016578BDAA4213D10A6822F499
:1021800080620A6001684A68120503D50A6822F471
:10219000806216E04A698A6900920A6842F4007215
:1021A0000A6039E0082A10D0202A0ED0122B0AD05B
:1021B000042A03D0022A01D0102AE7D10A6842F487
:1021C00080620A6024E0012AE0D00A6822F480627A
:1021D0000A600168DEE7042A21D0022A1FD0102AF3
:1021E0001DD00B6823F480630B6001680B6843F417
:1021F00000630B6001684B681B0509D5AA4212D029
:10220000012A10D0082A0ED0102A0CD0202A0AD079
:1022100001684A6989690091046578BD08E00B6826
:1022200043F48063E5E74A6842F480524A60EFE78E
:10223000486988690090F0E70000FFFF90F83E10C1
:10224000402910D00169B1F5804F19D0016DA9B3B3
:10225000016D012910D1416C5FF0F10201F4407170
:1022600042EAD11106E0016D0029416C05D0C9B2E6
:1022700041F0010100680161704701F0FE01F9E7DA
:1022800090F83D102129416C09D0C9B241F00101FB
:1022900002681161416B29B1C96B49B902E001F0D3
:1022A000FE01F5E7816B0029E6D0C96B0029E3D078
:1022B0000068416841F4006141607047FFE7416C8C
:1022C000F02201F44071CBE7016DC1B1016D01292C
:1022D00023D0016D022911D190F83D10222923D07D
:1022E00090F83D10212909D1416A026809781161ED
:1022F000416A491C4162418D491E41857047C16C4C
:102300000129816C02D0C1F3072108E00268C9B23B
:102310001161016D891C01657047816CC9B2026849
:102320001161016D491CF6E70068016841F4807194
:10233000016070472DE9F84F0446006889460B9DFF
:1023400001689846174641F4806101602068016881
:1023500041F48071016000954FF0011B0022594645
:1023600020460A9B00F0CEF94FF4007A40B1206875
:102370000068C00501D5C4F840A00320BDE8F88F6F
:10238000216809F0FE0008612B46284920460A9A78
:1023900000F0ECF9F0BB20684169806900902A46A2
:1023A00020460A9900F060FA40B1206C04283AD126
:1023B0002068016841F40071016034E0FEB2B8F1B8
:1023C000010F09D02168380A08612A4620460A9977
:1023D00000F04AFA0028E8D1206806612A46204623
:1023E0000A9900F041FA0028DFD12068016841F421
:1023F0008071016000950022594620460A9B00F03A
:1024000081F90028B3D1216809F0FF0040F00100F4
:10241000086100E007E02B46044920460A9A00F0D4
:10242000A5F90028AAD00120A8E7000002000100B9
:102430002DE9F843044600680D46DDE90897016878
:102440009846164641F4807101604B4600224FF0D9
:1024500001112046009700F055F948B12068006846
:10246000C00502D54FF4007020640320BDE8F88356
:10247000216805F0FE0008613B464A4615492046A2
:1024800000F074F988B920684169806900903A4683
:102490004946204600F0E8F948B1206C042804D1F0
:1024A0002068016841F4007101600120DEE7F5B2A7
:1024B000B8F1010F09D02168300A08613A4649464F
:1024C000204600F0D1F90028E7D1206805610020FE
:1024D000CCE70000020001002DE9F04190F83D40FA
:1024E000C26A002320261C4F01686FF48065082A09
:1024F00001D0202A01D1282C04D0212C16D04D61E6
:10250000BDE8F081C7624A6822F4E0624A6001686F
:102510004D6101680A6822F480620A60036380F8F2
:102520003D6080F83E30FEF785FCE9E7C762212276
:10253000026380F83D6080F83E304A6822F4E06231
:102540004A6001684D6101680A6822F480620A608D
:10255000FEF74FFED4E700000000FFFFF8B590F84B
:102560003D6004460068416821F4E06141602068F4
:10257000002541690091016841F001010160206876
:10258000016821F48061016020684168090520D557
:10259000474F222E48D02A2E46D0616B09684968E1
:1025A0006185618D19B1216C41F00401216441689C
:1025B00021F400614160606BFEF7F9F8012808D052
:1025C000606B0765606BFEF7E0F810B1606B016D42
:1025D0008847608D08B320684169C943490708D41A
:1025E0000069616A0870606A401C6062608D401E0C
:1025F000608520684169C943490608D40069616A59
:102600000870606A401C6062608D401E6085608D4D
:1026100018B1206C40F004002064206C00B3204608
:10262000BDE8F840FFF764BBA16B096849686185A4
:10263000618D19B1216C41F004012164416821F4DC
:1026400000614160A06BFEF7B2F80128C1D0A06B19
:102650000765A06BFEF799F80028BAD0A06BB6E723
:102660002A2E06D12563282084F83D002046FEF757
:10267000BFFD94F83D10202028290DD0216B222980
:1026800001D0222E07D1256384F83D0084F83E5006
:102690002046FEF7ADFDF8BD0649E162256384F8EA
:1026A0003D0084F83E502046FEF7C4FBF8BD000014
:1026B000691C00080000FFFF70B516460D46044671
:1026C0000DE02046FFF7BEFB08B1012070BD681C7D
:1026D00005D0FEF757F9801BA84207D835B120680E
:1026E0004069C0434007ECD4002070BD002044F88E
:1026F000300F20216173A073216941F02001216115
:102700002073E2E72DE9F0471E4690460D46044649
:10271000C1F30747DDF8209008E0701C06D0FEF7F3
:1027200031F9A0EB0900B0420FD876B12068012F33
:1027300018D0806925EA00000004000C14D00021A4
:102740004145EAD00020BDE8F087002044F8300F72
:1027500020216173A073216941F020012161207360
:102760000120F0E74069E5E70121E9E72DE9F047BD
:102770009A4691460E46044600254FF02008C1F3C4
:10278000074725E020684069C043400514D420680D
:10279000016841F40071016021686FF48060486154
:1027A000256384F83D8084F83E50206C40F004009E
:1027B000206484F83C501FE0B9F1FF3F08D0FEF7D9
:1027C000E1F8A0EB0A0149450CD8B9F1000F09D096
:1027D0002068012F13D0806926EA00000004000C55
:1027E0000BD0CFE744F8305F84F80D80A5732069E3
:1027F00040F02000206125730120BDE8F08740698A
:10280000EAE72DE9F041002590460E4604462027D0
:1028100017E04069C043C0060CD454F8301B6FF079
:102820001000486144F810596777A577206A206244
:10283000257717E0FEF7A6F8A0EB0800B04208D80D
:102840003EB120684169C9434906E2D40020BDE891
:10285000F08144F8305F6773A573206940F0200071
:10286000206125730120F2E770B516460D46044637
:102870000DE02046FFF7E6FA08B1012070BD681CA4
:1028800005D0FEF77FF8801BA84207D835B1206835
:102890004069C0430006ECD4002070BD002044F81D
:1028A000300F20216173A073216941F02001216163
:1028B0002073E2E7F0B585B007460124642504A83B
:1028C0008DE8310023467522D1213846FEF7B8FA4B
:1028D0009DF81000732802D0012005B0F0BD002043
:1028E0008DF80C0003AE009601236B22D0213846F0
:1028F000CDE90145FEF7A0FB03208DF80C00009602
:1029000001231922D0213846CDE90145FEF794FB79
:102910008DF80C40009601231C22D0213846CDE9C9
:102920000145FEF789FB18208DF80C000096012365
:102930001B22D0213846CDE90145FEF77DFB002062
:10294000CBE7000070B50C462DED028B86B06423FA
:10295000062203A98DE80E0001234322D021FEF7B1
:102960006FFABDF80C0040BA00B22084BDF80E101A
:1029700049BA0EB26684BDF8101049BA0DB2A584EA
:10298000FDF7E9FD9FED0F8B53EC182BFDF774FD60
:10299000C4E90A013046FDF7DEFD53EC182BFDF7C4
:1029A0006BFDC4E90C012846FDF7D5FD9FED071B23
:1029B00053EC112BFDF760FDC4E90E0106B0BDEC30
:1029C000028B70BD666666666666404066666666D1
:1029D0006666304030B587B014216846FDF728FCA4
:1029E00015480024016841F080010160016801F090
:1029F00080010591016841F001010160016801F069
:102A000001010591016841F00201016000680B4D70
:102A100000F002000590002280212846FDF7ADFF5E
:102A2000802000900120CDE90104694628460394E6
:102A3000FDF7C0FE07B030BD303802400000024054
:102A40000D4810B50B4901600C49416000214FF45D
:102A500080428160C0E9031241618161C16101620C
:102A6000FEF724F9002803D0BDE81040FDF78CBE26
:102A700010BD00000054004018330020801A0600EA
:102A800010B586B000241748009401940294039472
:102A900004944FF08041059401601421C0E90114B1
:102AA00040F2E731C0E9031480218161FEF722FF83
:102AB00008B1FDF769FE4FF480500090694609485F
:102AC000FEF761FF08B1FDF75FFE049404A9054815
:102AD0000594FEF7C7FE002801D0FDF755FE06B0AD
:102AE00010BD00006C330020FEE770477047704750
:102AF000D0EC020A71EE200AC1EE201AC0ED031AD2
:102B0000D0ED040A30EE602AB0EE600A01EE820ACF
:102B100080ED050A70EEC00A90ED022AF0EEE00AA0
:102B200060EE820AB7EE002A72EE611A41EE810A67
:102B3000C0ED010A80ED040A7047FEF75BBB0000A0
:102B400030B593B030216846FDF772FB14210CA814
:102B5000FDF76EFB1A480025016841F080510160C5
:102B6000006800F0805011901648016841F48041DF
:102B700001600068022400F4804011900120009060
:102B8000000401908001CDE90640082008904FF430
:102B9000A870CDE9090404200B906846FEF79EFC5E
:102BA0000CA90F2081E831004FF4A0500F90E002F3
:102BB000109005210CA8FEF7B7FB13B030BD000044
:102BC00040380240007000400548016841F470013F
:102BD000016003494FF000608039086070470000D1
:102BE00088ED00E00148FEF73ABF00006C3300209A
:102BF000F0B50268254C264D264E274F274B4FF047
:102C0000804CA04209D0604507D0A84205D0B04210
:102C100003D0B84201D0984204D122F0700E4A6825
:102C200042EA0E02A0421BD0604519D0A84217D03C
:102C3000B04215D0B84213D0984211D0184DA842D6
:102C40000ED0184DA8420BD0174DA84208D0174DF2
:102C5000A84205D0164DA84202D0164DA84203D175
:102C600022F44075CA682A434D6922F080022A4343
:102C700002608A68C2620A688262A04201D09842F9
:102C800001D10969016301214161F0BD00000140EA
:102C90000004004000080040000C00400004014017
:102CA000004001400044014000480140001800403D
:102CB000001C00400020004010B5846842EA032256
:102CC00024F47F440A432243826010BD826822F0CC
:102CD00070020A4342F007018160704710B5036A31
:102CE000046A24F001040462846924F0F00444EAD4
:102CF000021423F00A020A438461026210BD10B577
:102D0000036A23F0100303628369046A23F47043A7
:102D100043EA023224F0A00343EA01118261016216
:102D200010BDFEE70907090E002804DB00F1E020D2
:102D300080F80014704700F00F0000F1E02080F8E8
:102D4000141D704702E008C8121F08C1002AFAD1FA
:102D500070477047002001E001C1121F002AFBD11B
:102D600070470000FEF74EFAFFF7EAFEFFF732FE6B
:102D7000FFF766FEFFF784FE0548FFF79BFD01287D
:102D8000FAD000F009F80348FEF7ECFDFEE700007A
:102D9000183300206C33002010B5204C2DE000BF0C
:102DA000FDF7F0FD2168884227D01D491D48FFF737
:102DB000C9FD1B4890ED0E0B51EC100BFDF7EFFB1E
:102DC00000EE100A1848FFF793FE10EE100AFDF708
:102DD000D3FB41EC100B84ED040B53EC102B94ED62
:102DE0000A0B51EC100BFDF72EFAC4E90A016068DA
:102DF000401E6060FDF7C6FD206060680028CFDCE3
:102E00009FED0A0B53EC102B94ED0A0B51EC100BB9
:102E1000FDF732FBC4E9080110BD000000000020EE
:102E2000580000201833002040000020000000005F
:102E300000409F4000000000000000000102030469
:102E40000607080900000000010203046C2E0008B8
:102E50000000002058000000442D0008C42E000887
:102E60005800002058370000542D000800000000D2
:102E7000D0070000000000000029CC400000000046
:102E80000000000000000000000000000000000042
:102E90000000000000000000000000000100000031
:102EA00010000000000000000024F400B81E853E61
:102EB0009A99993EF4FD543C000000000000000087
:042EC000000000000E
:040000050800018965
:00000001FF
